{"abi":[{"type":"function","name":"value","inputs":[],"outputs":[{"name":"","type":"uint256","internalType":"uint256"}],"stateMutability":"pure"}],"bytecode":{"object":"0x6080604052348015600e575f5ffd5b5060af80601a5f395ff3fe6080604052348015600e575f5ffd5b50600436106026575f3560e01c80633fa4f24514602a575b5f5ffd5b60306044565b604051603b91906062565b60405180910390f35b5f6001905090565b5f819050919050565b605c81604c565b82525050565b5f60208201905060735f8301846055565b9291505056fea2646970667358221220bd3c2a8c08496c13549057939627b9112654de4ff13cb39f35d5e57e9b1df6c864736f6c634300081e0033","linkReferences":{}},"methodIdentifiers":{"value()":"3fa4f245"},"id":19}